{
  "contractName": "EtherBank",
  "abi": [
    {
      "anonymous": false,
      "inputs": [
        {
          "indexed": true,
          "internalType": "address",
          "name": "account",
          "type": "address"
        },
        {
          "indexed": false,
          "internalType": "uint256",
          "name": "amount",
          "type": "uint256"
        }
      ],
      "name": "Deposit",
      "type": "event"
    },
    {
      "anonymous": false,
      "inputs": [
        {
          "indexed": true,
          "internalType": "address",
          "name": "account",
          "type": "address"
        },
        {
          "indexed": false,
          "internalType": "uint256",
          "name": "amount",
          "type": "uint256"
        }
      ],
      "name": "Withdrawal",
      "type": "event"
    },
    {
      "inputs": [],
      "name": "deposit",
      "outputs": [],
      "stateMutability": "payable",
      "type": "function",
      "payable": true
    },
    {
      "inputs": [
        {
          "internalType": "uint256",
          "name": "amount",
          "type": "uint256"
        }
      ],
      "name": "withdraw",
      "outputs": [],
      "stateMutability": "nonpayable",
      "type": "function"
    },
    {
      "inputs": [],
      "name": "getBalance",
      "outputs": [
        {
          "internalType": "uint256",
          "name": "",
          "type": "uint256"
        }
      ],
      "stateMutability": "view",
      "type": "function",
      "constant": true
    }
  ],
  "bytecode": "0x608060405234801561001057600080fd5b5061066b806100206000396000f3fe6080604052600436106100345760003560e01c806312065fe0146100395780632e1a7d4d14610064578063d0e30db01461008d575b600080fd5b34801561004557600080fd5b5061004e610097565b60405161005b919061052f565b60405180910390f35b34801561007057600080fd5b5061008b6004803603810190610086919061038b565b6100dd565b005b61009561028e565b005b60008060003373ffffffffffffffffffffffffffffffffffffffff1673ffffffffffffffffffffffffffffffffffffffff16815260200190815260200160002054905090565b60008111610120576040517f08c379a00000000000000000000000000000000000000000000000000000000081526004016101179061050f565b60405180910390fd5b806000803373ffffffffffffffffffffffffffffffffffffffff1673ffffffffffffffffffffffffffffffffffffffff1681526020019081526020016000205410156101a1576040517f08c379a0000000000000000000000000000000000000000000000000000000008152600401610198906104ef565b60405180910390fd5b806000803373ffffffffffffffffffffffffffffffffffffffff1673ffffffffffffffffffffffffffffffffffffffff16815260200190815260200160002060008282546101ef91906105b1565b925050819055503373ffffffffffffffffffffffffffffffffffffffff166108fc829081150290604051600060405180830381858888f1935050505015801561023c573d6000803e3d6000fd5b503373ffffffffffffffffffffffffffffffffffffffff167f7fcf532c15f0a6db0bd6d0e038bea71d30d808c7d98cb3bf7268a95bf5081b6582604051610283919061052f565b60405180910390a250565b600034116102d1576040517f08c379a00000000000000000000000000000000000000000000000000000000081526004016102c8906104cf565b60405180910390fd5b346000803373ffffffffffffffffffffffffffffffffffffffff1673ffffffffffffffffffffffffffffffffffffffff168152602001908152602001600020600082825461031f919061055b565b925050819055503373ffffffffffffffffffffffffffffffffffffffff167fe1fffcc4923d04b559f4d29a8bfc6cda04eb5b0d3c460751c2402c5c5cc9109c3460405161036c919061052f565b60405180910390a2565b6000813590506103858161061e565b92915050565b60006020828403121561039d57600080fd5b60006103ab84828501610376565b91505092915050565b60006103c160258361054a565b91507f4465706f73697420616d6f756e74206d7573742062652067726561746572207460008301527f68616e20300000000000000000000000000000000000000000000000000000006020830152604082019050919050565b600061042760148361054a565b91507f496e73756666696369656e742062616c616e63650000000000000000000000006000830152602082019050919050565b600061046760288361054a565b91507f5769746864726177616c20616d6f756e74206d7573742062652067726561746560008301527f72207468616e20300000000000000000000000000000000000000000000000006020830152604082019050919050565b6104c9816105e5565b82525050565b600060208201905081810360008301526104e8816103b4565b9050919050565b600060208201905081810360008301526105088161041a565b9050919050565b600060208201905081810360008301526105288161045a565b9050919050565b600060208201905061054460008301846104c0565b92915050565b600082825260208201905092915050565b6000610566826105e5565b9150610571836105e5565b9250827fffffffffffffffffffffffffffffffffffffffffffffffffffffffffffffffff038211156105a6576105a56105ef565b5b828201905092915050565b60006105bc826105e5565b91506105c7836105e5565b9250828210156105da576105d96105ef565b5b828203905092915050565b6000819050919050565b7f4e487b7100000000000000000000000000000000000000000000000000000000600052601160045260246000fd5b610627816105e5565b811461063257600080fd5b5056fea26469706673582212201997db158c036b2dfa09a9ad46903253e539329d9b41385f3f08b47162fd7aa764736f6c63430008000033",
  "immutableReferences": {},
  "source": "// SPDX-License-Identifier: MIT\r\npragma solidity ^0.8.0;\r\n\r\ncontract EtherBank {\r\n    mapping(address => uint256) private balances;\r\n\r\n    event Deposit(address indexed account, uint256 amount);\r\n    event Withdrawal(address indexed account, uint256 amount);\r\n\r\n    function deposit() external payable {\r\n        require(msg.value > 0, \"Deposit amount must be greater than 0\");\r\n        balances[msg.sender] += msg.value;\r\n        emit Deposit(msg.sender, msg.value);\r\n    }\r\n\r\n    function withdraw(uint256 amount) external {\r\n        require(amount > 0, \"Withdrawal amount must be greater than 0\");\r\n        require(balances[msg.sender] >= amount, \"Insufficient balance\");\r\n\r\n        balances[msg.sender] -= amount;\r\n        payable(msg.sender).transfer(amount);\r\n        emit Withdrawal(msg.sender, amount);\r\n    }\r\n\r\n    function getBalance() external view returns (uint256) {\r\n        return balances[msg.sender];\r\n    }\r\n}\r\n",
  "sourcePath": "C:\\Users\\VKPAT\\OneDrive\\Desktop\\The Graph\\deploy-subgraph-template\\contracts\\Deposit.sol",
  "compiler": {
    "name": "solc",
    "version": "0.8.0+commit.c7dfd78e.Emscripten.clang"
  },
  "schemaVersion": "3.4.9",
  "updatedAt": "2023-08-29T02:18:51.146Z",
  "networkType": "ethereum",
  "devdoc": {
    "kind": "dev",
    "methods": {},
    "version": 1
  },
  "userdoc": {
    "kind": "user",
    "methods": {},
    "version": 1
  }
}